:020000040800F2
:1000000000000220BD230008290600083106000870
:1000100039060008410600084906000800000000F3
:100020000000000000000000000000005106000871
:100030005F060008000000006D0600087B0600084F
:100040000D2400080D2400080D2400080D240008CC
:100050000D2400080D2400080D2400080D240008BC
:100060000D2400080D2400080D2400080D240008AC
:100070000D2400080D2400080D2400080D2400089C
:100080000D2400080D2400080D2400080D2400088C
:10009000890600080D2400080D2400080D2400081E
:1000A0000D2400080D2400080D2400080D2400086C
:1000B0000D2400080D2400080D2400080D2400085C
:1000C0000D2400080D2400080D2400080D2400084C
:1000D0000D2400080D2400080D2400080D2400083C
:1000E0000D2400080D2400080D2400080D2400082C
:1000F0000D2400080D2400080D2400080D2400081C
:100100000D2400080D2400080D2400080D2400080B
:100110000D2400080D2400080D2400080D240008FB
:100120000D2400080D2400080D2400080D240008EB
:100130000D2400080D2400080D2400080D240008DB
:100140000D2400080D2400080D2400080D240008CB
:100150000D2400080D2400080D2400080D240008BB
:100160000D2400080D2400080D2400080D240008AB
:100170000D2400080D2400080D24000800000000D4
:080180000D2400080D24000805
:1001880053B94AB9002908BF00281CBF4FF0FF31F6
:100198004FF0FF3000F00CB8ADF1080C6DE904CE5B
:1001A80002F032F9DDF804E0DDE9022304B070471B
:1001B800704700BF0348044B834202D0034B03B18E
:1001C800184770470C0000200C00002000000000B9
:1001D8000548064B1B1AD90F01EBA301491002D0A1
:1001E800034B03B1184770470C0000200C00002097
:1001F8000000000010B5064C237843B9FFF7DAFF7A
:10020800044B13B10448AFF300800123237010BDE1
:100218000C000020000000002427000808B5054B4A
:100228001BB105490548AFF30080BDE80840FFF75A
:10023800CFBF00BF000000001000002024270008E6
:1002480080B58CB000AF00F0AFFA00F063F800F0B2
:1002580039F900F0C9F807F10C0300221A605A6056
:100268009A60DA601A615A614FF40073FB600023E8
:100278003B6100237B610023BB610823FB610023F2
:1002880087F820303B1D00221A605A604FF47A73B9
:10029800FB84B7F926301B121BB2DBB23B71FB8C17
:1002A800DBB27B7100F0E6FAF8620023BB6200F073
:1002B800E1FA0246FB6AD31A092BF8D900F0DAFAF8
:1002C800F8623B463A1D07F10C01104800F0FCFCAF
:1002D8000346002B06D001224FF480510C4801F050
:1002E80011FCE4E700224FF48051094801F00AFCB0
:1002F800BB6A0133BB62BB6A312BD8D90023BB620E
:100308004FF48061024801F016FCD0E72800002075
:10031800001C024080B594B000AF07F120033022E2
:100328000021184602F0CEF907F10C0300221A60EA
:100338005A609A60DA601A610023BB60284B1B6C14
:10034800274A43F080531364254B1B6C03F08053FA
:10035800BB60BB6800237B60224B1B68214A43F4C7
:10036800804313601F4B1B6803F480437B607B68EA
:1003780001233B624FF480337B620223BB634FF45B
:100388008003FB6306233B64A8237B640223BB64CE
:100398000423FB6407F12003184601F0E7FB03463A
:1003A800002B01D000F036F90F23FB6002233B61DC
:1003B80000237B614FF4A053BB614FF48053FB6172
:1003C80007F10C030521184601F048FE0346002BEF
:1003D80001D000F01FF900BF5037BD4680BD00BFF7
:1003E800003802400070004080B58AB000AF334B3F
:1003F800334A1A60314B03225A60304B00229A600C
:100408002E4B0022DA602D4B4FF410221A612B4B31
:100418004FF400125A61294B00221A76274B00220A
:100428005A76264B00229A76244B0022DA76234B02
:1004380000221A77214B00225A77204800F026FA2A
:100448000346002B01D000F0E5F83B4628220021A6
:10045800184602F037F901233B620023BB610123F0
:10046800FB6100233B6000237B600023BB6000230B
:10047800FB6000237B6100233B610E237B623B46CC
:1004880019460E4800F0FEFA0346002B01D000F092
:10049800C1F80A4800F0D4FB0346002B01D000F055
:1004A800B9F80221054800F029FE0346002B01D0C7
:1004B80000F0B0F800BF2837BD4680BD28000020F6
:1004C8000064004080B588B000AF07F10C0300223B
:1004D8001A605A609A60DA601A610023BB60204B88
:1004E8001B6B1F4A43F0010313631D4B1B6B03F087
:1004F8000103BB60BB6800237B60194B1B6B184A68
:1005080043F008031363164B1B6B03F008037B606F
:100518007B6800233B60124B1B6B114A43F080033E
:1005280013630F4B1B6B03F080033B603B68002297
:100538004FF4E0510B4801F0E5FA4FF4E053FB604B
:1005480001233B6100237B610023BB6107F10C039E
:100558001946044801F03AF900BF2037BD4680BD6E
:1005680000380240001C024080B58EB000AF7860B1
:100578003FE007F10C0307F114020021786800F04E
:1005880073FC0346002B3CD1FB69002B31D17B69FE
:1005980040F2012293422CD13B7B1BB21B021AB2C0
:1005A8007B7B1BB21343FB86BB7B1BB21B021AB2BD
:1005B800FB7B1BB21343BB863B7C1BB21B021AB2EC
:1005C8007B7C1BB213437B86FB7C87F831300F4B57
:1005D8001B6801330D4A13600C4B1B68B3F5FA7F97
:1005E80007D30A4B00221A604FF40061084801F053
:1005F800A2FA0021786800F059FD0346002BB8D113
:1006080000E000BF00BF3837BD4680BD5000002065
:10061800001C024080B400AF72B600BF00BFFDE707
:1006280080B400AF00BFFDE780B400AF00BFFDE7B6
:1006380080B400AF00BFFDE780B400AF00BFFDE7A6
:1006480080B400AF00BFFDE780B400AF00BFBD4677
:100658005DF8047B704780B400AF00BFBD465DF80D
:10066800047B704780B400AF00BFBD465DF8047BD3
:10067800704780B500AF00F0E9F800BF80BD00000A
:1006880080B500AF024800F05FFD00BF80BD00BF2D
:100698002800002080B483B000AF00237B60104B9B
:1006A8005B6C0F4A43F4804353640D4B5B6C03F45B
:1006B80080437B607B6800233B60094B1B6C084AC6
:1006C80043F080531364064B1B6C03F080533B606C
:1006D8003B6800BF0C37BD465DF8047B704700BF20
:1006E8000038024080B58AB000AF786007F1140383
:1006F80000221A605A609A60DA601A617B681B6887
:100708001D4A934233D100233B611C4B1B6C1B4A8F
:1007180043F000731364194B1B6C03F000733B61C7
:100728003B690023FB60154B1B6B144A43F008031D
:100738001363124B1B6B03F00803FB60FB68032376
:100748007B610223BB610023FB6103233B62092316
:100758007B6207F114031946094801F037F80022B3
:100768000021142000F0FBFF142001F014F800BF52
:100778002837BD4680BD00BF0064004000380240F5
:10078800000C024080B400AF064BD3F88830054A0D
:1007980043F47003C2F8883000BFBD465DF8047B9F
:1007A800704700BF00ED00E080B500AF0E4B1B683E
:1007B8000D4A43F4007313600B4B1B680A4A43F459
:1007C80080631360084B1B68074A43F48073136007
:1007D800032000F0B9FF0F2000F008F8FFF75AFFD8
:1007E8000023184680BD00BF003C024080B582B09F
:1007F80000AF7860124B1A68124B1B7819464FF4F9
:100808007A73B3FBF1F3B2FBF3F3184600F0D1FFB0
:100818000346002B01D001230EE07B680F2B0AD87A
:10082800002279684FF0FF3000F099FF064A7B6894
:100838001360002300E0012318460837BD4680BD39
:1008480000000020080000200400002080B400AF51
:10085800064B1B781A46064B1B681344044A136060
:1008680000BFBD465DF8047B704700BF080000204C
:100878005400002080B400AF034B1B681846BD46E7
:100888005DF8047B704700BF5400002080B584B039
:1008980000AF78607B68002B01D10123EDE07B6815
:1008A80093F82030DBB2002B02D17868FFF71AFFEB
:1008B8007B681B681A687B681B6842F001021A6033
:1008C800FFF7D8FFF86012E0FFF7D4FF0246FB6895
:1008D800D31A0A2B0BD97B685B6A43F400327B6816
:1008E8005A627B68052283F820200123C5E07B68D3
:1008F8001B685B6803F00103002BE5D07B681B686D
:100908001A687B681B6822F002021A60FFF7B2FFC0
:10091800F86012E0FFF7AEFF0246FB68D31A0A2B15
:100928000BD97B685B6A43F400327B685A627B6848
:10093800052283F8202001239FE07B681B685B6801
:1009480003F00203002BE5D17B681B7E012B08D145
:100958007B681B681A687B681B6842F080021A6013
:1009680007E07B681B681A687B681B6822F08002B6
:100978001A607B685B7E012B08D17B681B681A684C
:100988007B681B6842F040021A6007E07B681B68BE
:100998001A687B681B6822F040021A607B689B7E9D
:1009A800012B08D17B681B681A687B681B6842F0BA
:1009B80020021A6007E07B681B681A687B681B685E
:1009C80022F020021A607B68DB7E012B08D17B684D
:1009D8001B681A687B681B6822F010021A6007E01F
:1009E8007B681B681A687B681B6842F010021A60F3
:1009F8007B681B7F012B08D17B681B681A687B68A2
:100A08001B6842F008021A6007E07B681B681A68D6
:100A18007B681B6822F008021A607B685B7F012BE9
:100A280008D17B681B681A687B681B6842F004025F
:100A38001A6007E07B681B681A687B681B6822F0ED
:100A480004021A607B689A687B68DB681A437B68D3
:100A58001B691A437B685B6942EA03017B685B6830
:100A68005A1E7B681B680A43DA617B6800225A6257
:100A78007B68012283F82020002318461037BD46E2
:100A880080BD000080B487B000AF786039607B68B3
:100A980093F82030FB75FB7D012B03D0FB7D022BE7
:100AA80040F0BE80654B3B613B69D3F8003243F0B0
:100AB80001023B69C3F800223B69D3F8003223F4F2
:100AC8007C523B69C3F800223B69D3F800223B689B
:100AD8005B6A1B021A433B69C3F800223B685B69E7
:100AE80003F01F03012202FA03F3FB603B69D3F80A
:100AF8001C22FB68DB431A403B69C3F81C223B6895
:100B0800DB69002B23D13B69D3F80C22FB68DB435C
:100B18001A403B69C3F80C223B68DB6819043B6840
:100B28005B689BB23A68526919433B69483243F89B
:100B380032103B689B6819043B681B689AB23B6893
:100B48005B690A4339694833DB000B445A603B68E8
:100B5800DB69012B22D13B69D3F80C22FB681A43CD
:100B68003B69C3F80C223B681B6819043B685B6847
:100B78009BB23A68526919433B69483243F83210CC
:100B88003B689B6819043B68DB689AB23B685B6901
:100B98000A4339694833DB000B445A603B689B6958
:100BA800002B09D13B69D3F80422FB68DB431A40C8
:100BB8003B69C3F8042207E03B69D3F80422FB68C9
:100BC8001A433B69C3F804223B681B69002B09D10F
:100BD8003B69D3F81422FB68DB431A403B69C3F82E
:100BE800142207E03B69D3F81422FB681A433B69D7
:100BF800C3F814223B681B6A012B07D13B69D3F861
:100C08001C22FB681A433B69C3F81C223B69D3F8D2
:100C1800003223F001023B69C3F80022002306E0FA
:100C28007B685B6A43F480227B685A62012318461A
:100C38001C37BD465DF8047B704700BF0064004068
:100C480080B584B000AF78607B6893F82030DBB261
:100C5800012B2ED17B68022283F820207B681B6839
:100C68001A687B681B6822F001021A60FFF702FE0F
:100C7800F86012E0FFF7FEFD0246FB68D31A0A2B64
:100C88000BD97B685B6A43F400327B685A627B68E5
:100C9800052283F82020012312E07B681B685B682B
:100CA80003F00103002BE5D17B6800225A62002380
:100CB80006E07B685B6A43F400227B685A62012382
:100CC80018461037BD4680BD80B489B000AFF860C3
:100CD800B9607A603B60FB6893F82030FB77FB686B
:100CE8001B689B68BB61FB7F012B03D0FB7F022B3A
:100CF80040F0AD80BB6903F08063002B0AD1BB696B
:100D080003F00063002B05D1BB6903F08053002B6F
:100D180000F09580BB691B0E03F003037B61012281
:100D28007B699A403B681A60BB689B68002B0DD1B1
:100D3800BB681B685A05BB68DB68F96809681A4311
:100D48007B6918331B010B441A600FE0BB685B68B2
:100D5800DA00BB689B681A43BB68DB68F9680968F6
:100D68001A437B6918331B010B441A60FB68196826
:100D7800BB681A697B6918331B010B4404331A607A
:100D8800BB681B7D012B11D1FB681A687B6918337E
:100D98001B01134404331B68FA68116843F480721A
:100DA8007B6918331B010B4404331A607B680733D3
:100DB8001B781A067B6806331B781B041A437B686A
:100DC80005331B781B0213437A68043212781046E5
:100DD800FA68116843EA00027B691B010B4403F5BA
:100DE800C6731A607B6803331B781A067B68023364
:100DF8001B781B041A437B6801331B781B021343BF
:100E08007A6812781046FA68116843EA00027B692A
:100E18001B010B4403F5C4731A60FB681A687B69ED
:100E280018331B0113441B68FA68116843F0010268
:100E38007B6918331B010B441A6000230EE0FB6822
:100E48005B6A43F40012FB685A62012306E0FB6800
:100E58005B6A43F48022FB685A62012318462437F0
:100E6800BD465DF8047B704780B487B000AFF8607A
:100E7800B9607A603B60FB6893F82030FB75FB7DB6
:100E8800012B03D0FB7D022B40F00381BB68002BB4
:100E98000ED1FB681B68DB6803F00303002B16D137
:100EA800FB685B6A43F40012FB685A620123F7E0AF
:100EB800FB681B681B6903F00303002B07D1FB6861
:100EC8005B6A43F40012FB685A620123E8E0FB689E
:100ED8001A68BB681B331B0113441B6803F0040228
:100EE8007B689A607B689B68002B0CD1FB681A684A
:100EF800BB681B331B0113441B685B0DC3F30A0259
:100F08007B681A600BE0FB681A68BB681B331B011F
:100F180013441B68DB0823F060427B685A60FB6857
:100F28001A68BB681B331B0113441B6803F00202D9
:100F38007B68DA60FB681A68BB681B331B011344C3
:100F480004331B6803F00803002B03D07B680822D6
:100F58001A610BE0FB681A68BB681B331B0113445A
:100F680004331B6803F00F027B681A61FB681A6878
:100F7800BB681B331B01134404331B681B0ADAB21A
:100F88007B689A61FB681A68BB681B331B011344B2
:100F980004331B681B0C9AB27B685A61FB681A6899
:100FA800BB681B01134403F5DC731B68DAB23B68AA
:100FB8001A70FB681A68BB681B01134403F5DC73DD
:100FC8001B681A0A3B680133D2B21A70FB681A68A8
:100FD800BB681B01134403F5DC731B681A0C3B68E0
:100FE8000233D2B21A70FB681A68BB681B0113443B
:100FF80003F5DC731B681A0E3B680333D2B21A7010
:10100800FB681A68BB681B01134403F5DE731A6892
:101018003B680433D2B21A70FB681A68BB681B01BC
:10102800134403F5DE731B681A0A3B680533D2B212
:101038001A70FB681A68BB681B01134403F5DE735A
:101048001B681A0C3B680633D2B21A70FB681A6820
:10105800BB681B01134403F5DE731B681A0E3B685B
:101068000733D2B21A70BB68002B08D1FB681B6823
:10107800DA68FB681B6842F02002DA6007E0FB6868
:101088001B681A69FB681B6842F020021A6100237A
:1010980006E0FB685B6A43F48022FB685A6201231E
:1010A80018461C37BD465DF8047B704780B485B090
:1010B80000AF786039600023FB607B6893F82030CC
:1010C800FB72FB7A012B02D0FB7A022B0FD13B6813
:1010D800002B06D17B681B68DB6803F00303FB6009
:1010E80005E07B681B681B6903F00303FB60FB6872
:1010F80018461437BD465DF8047B704780B485B048
:1011080000AF786039607B6893F82030FB73FB7B15
:10111800012B02D0FB7B022B09D17B681B68596924
:101128007B681B683A680A435A61002306E07B68BB
:101138005B6A43F480227B685A620123184614379D
:10114800BD465DF8047B704780B58AB000AF786013
:1011580000237B627B681B685B693B627B681B685A
:101168005B68FB617B681B689B68BB617B681B686D
:10117800DB687B617B681B681B693B617B681B685C
:101188009B69FB603B6A03F00103002B7CD0BB69C1
:1011980003F00103002B23D07B681B6801229A60AF
:1011A800BB6903F00203002B03D0786800F083F9D1
:1011B80016E0BB6903F00403002B04D07B6A43F4F8
:1011C80000637B620CE0BB6903F00803002B04D0CA
:1011D8007B6A43F480537B6202E0786800F089F907
:1011E800BB6903F48073002B24D07B681B684FF421
:1011F80080729A60BB6903F40073002B03D078688F
:1012080000F063F916E0BB6903F48063002B04D097
:101218007B6A43F400537B620CE0BB6903F4006310
:10122800002B04D07B6A43F480437B6202E0786839
:1012380000F069F9BB6903F48033002B24D07B6884
:101248001B684FF480329A60BB6903F40033002BAB
:1012580003D0786800F043F916E0BB6903F48023F3
:10126800002B04D07B6A43F400437B620CE0BB692B
:1012780003F40023002B04D07B6A43F480337B62A1
:1012880002E0786800F049F93B6A03F00803002B94
:101298000CD07B6903F01003002B07D07B6A43F462
:1012A80000737B627B681B681022DA603B6A03F07C
:1012B8000403002B0BD07B6903F00803002B06D036
:1012C8007B681B680822DA60786800F030F93B6AAE
:1012D80003F00203002B09D07B681B68DB6803F06E
:1012E8000303002B02D07868FFF73EF93B6A03F04E
:1012F8004003002B0CD03B6903F01003002B07D0F0
:101308007B6A43F480637B627B681B6810221A61E6
:101318003B6A03F02003002B0BD03B6903F0080362
:10132800002B06D07B681B6808221A61786800F0D9
:1013380012F93B6A03F01003002B09D07B681B6885
:101348001B6903F00303002B02D0786800F0F9F85A
:101358003B6A03F40033002B0BD0FB6903F0100346
:10136800002B06D07B681B6810225A60786800F052
:10137800FCF83B6A03F48033002B0BD0FB6903F0C5
:101388000803002B06D07B681B6808225A6078681F
:1013980000F0F5F83B6A03F40043002B7BD0FB69AF
:1013A80003F00403002B72D03B6A03F48073002B14
:1013B80008D0FB6803F00103002B03D07B6A43F0DD
:1013C80001037B623B6A03F40073002B08D0FB68BF
:1013D80003F00203002B03D07B6A43F002037B6215
:1013E8003B6A03F48063002B08D0FB6803F0040316
:1013F800002B03D07B6A43F004037B623B6A03F44F
:101408000063002B43D0FB6803F07003002B3ED031
:10141800FB6803F07003602B2BD0602B2ED8502B69
:1014280022D0502B2AD8402B19D0402B26D8302B2D
:1014380010D0302B22D8102B02D0202B05D01DE045
:101448007B6A43F008037B6219E07B6A43F0100370
:101458007B6214E07B6A43F020037B620FE07B6AC7
:1014680043F040037B620AE07B6A43F080037B62BF
:1014780005E07B6A43F480737B6200E000BF7B6811
:101488001B689A697B681B6822F070029A617B6806
:101498001B6804225A607B6A002B08D07B685A6A52
:1014A8007B6A1A437B685A62786800F072F800BF5A
:1014B8002837BD4680BD80B483B000AF786000BFD8
:1014C8000C37BD465DF8047B704780B483B000AF2D
:1014D800786000BF0C37BD465DF8047B704780B468
:1014E80083B000AF786000BF0C37BD465DF8047B61
:1014F800704780B483B000AF786000BF0C37BD463A
:101508005DF8047B704780B483B000AF786000BF9B
:101518000C37BD465DF8047B704780B483B000AFDC
:10152800786000BF0C37BD465DF8047B704780B417
:1015380083B000AF786000BF0C37BD465DF8047B10
:10154800704780B483B000AF786000BF0C37BD46E9
:101558005DF8047B704780B483B000AF786000BF4B
:101568000C37BD465DF8047B704780B483B000AF8C
:10157800786000BF0C37BD465DF8047B704780B4C7
:1015880083B000AF786000BF0C37BD465DF8047BC0
:10159800704780B483B000AF786000BF0C37BD4699
:1015A8005DF8047B7047000080B485B000AF7860B8
:1015B8007B6803F00703FB600C4BDB68BB60BA6811
:1015C8004FF6FF031340BB60FB681A02BB68134366
:1015D80043F0BF6343F40033BB60044ABB68D36085
:1015E80000BF1437BD465DF8047B704700ED00E08E
:1015F80080B400AF044BDB681B0A03F007031846EE
:10160800BD465DF8047B704700ED00E080B483B010
:1016180000AF0346FB7197F90730002B0BDBFB7912
:1016280003F01F02074997F907305B09012000FA08
:1016380002F241F8232000BF0C37BD465DF8047B59
:10164800704700BF00E100E080B483B000AF0346FC
:101658003960FB7197F90730002B0ADB3B68DAB277
:101668000C4997F907301201D2B20B4483F80023D2
:101678000AE03B68DAB20849FB7903F00F03043B40
:101688001201D2B20B441A7600BF0C37BD465DF882
:10169800047B704700E100E000ED00E080B489B011
:1016A80000AFF860B9607A60FB6803F00703FB617C
:1016B800FB69C3F10703042B28BF0423BB61FB6943
:1016C8000433062B02D9FB69033B00E000237B614E
:1016D8004FF0FF32BB6902FA03F3DA43BB681A40E2
:1016E8007B699A404FF0FF317B6901FA03F3D943D4
:1016F8007B680B40134318462437BD465DF8047BCE
:101708007047000080B582B000AF78607B68013B0D
:10171800B3F1807F01D301230FE00A4A7B68013BC4
:1017280053600F214FF0FF30FFF78EFF054B00226B
:101738009A60044B07221A60002318460837BD46F2
:1017480080BD00BF10E000E080B582B000AF7860D7
:101758007868FFF729FF00BF0837BD4680BD80B510
:1017680086B000AF0346B9607A60FB7300237B61E3
:10177800FFF73EFF78617A68B9687869FFF78EFFEE
:10178800024697F90F3011461846FFF75DFF00BF74
:101798001837BD4680BD80B582B000AF0346FB71E7
:1017A80097F907301846FFF731FF00BF0837BD46E5
:1017B80080BD80B582B000AF78607868FFF7A2FF7F
:1017C800034618460837BD4680BD000080B489B07E
:1017D80000AF7860396000237B6100233B61002300
:1017E800BB610023FB616BE10122FB6902FA03F391
:1017F8007B613B681B687A6913403B613A697B6986
:101808009A4240F05A813B685B6803F00303012B5E
:1018180005D03B685B6803F00303022B30D17B687B
:101828009B68BB61FB695B00032202FA03F3DB439D
:10183800BA691340BB613B68DA68FB695B0002FA6E
:1018480003F3BA691343BB617B68BA699A607B6822
:101858005B68BB610122FB6902FA03F3DB43BA69E7
:101868001340BB613B685B681B0903F00102FB691D
:1018780002FA03F3BA691343BB617B68BA695A6019
:101888003B685B6803F00303032B17D07B68DB68B6
:10189800BB61FB695B00032202FA03F3DB43BA690D
:1018A8001340BB613B689A68FB695B0002FA03F36B
:1018B800BA691343BB617B68BA69DA603B685B68E5
:1018C80003F00303022B23D1FB69DA087B68083293
:1018D80053F82230BB61FB6903F007039B000F221A
:1018E80002FA03F3DB43BA691340BB613B681A6928
:1018F800FB6903F007039B0002FA03F3BA69134379
:10190800BB61FB69DA087B680832B96943F82210C1
:101918007B681B68BB61FB695B00032202FA03F367
:10192800DB43BA691340BB613B685B6803F00302A1
:10193800FB695B0002FA03F3BA691343BB617B6876
:10194800BA691A603B685B6803F44033002B00F007
:10195800B4800023FB60604B5B6C5F4A43F48043B8
:1019680053645D4B5B6C03F48043FB60FB685B4A2C
:10197800FB699B08023352F82330BB61FB6903F013
:1019880003039B000F2202FA03F3DB43BA691340F7
:10199800BB617B68524A93422BD07B68514A934281
:1019A80025D07B68504A93421FD07B684F4A9342A8
:1019B80019D07B684E4A934213D07B684D4A9342B4
:1019C8000DD07B684C4A934207D07B684B4A9342C0
:1019D80001D107230EE008230CE006230AE00523C3
:1019E80008E0042306E0032304E0022302E00123C5
:1019F80000E00023FA6902F0030292009340BA69FA
:101A08001343BB613549FB699B080233BA6941F846
:101A180023203B4B9B68BB613B69DB43BA6913409E
:101A2800BB613B685B6803F48013002B03D0BA6981
:101A38003B691343BB61324ABB699360304BDB6837
:101A4800BB613B69DB43BA691340BB613B685B68B8
:101A580003F40013002B03D0BA693B691343BB613D
:101A6800274ABB69D360264B5B68BB613B69DB4394
:101A7800BA691340BB613B685B6803F40033002B11
:101A880003D0BA693B691343BB611D4ABB69536004
:101A98001B4B1B68BB613B69DB43BA691340BB61E5
:101AA8003B685B6803F48033002B03D0BA693B6959
:101AB8001343BB61124ABB691360FB690133FB61C5
:101AC800FB690F2B7FF690AE00BF00BF2437BD46E1
:101AD8005DF8047B704700BF0038024000380140C1
:101AE800000002400004024000080240000C0240CE
:101AF800001002400014024000180240001C02407E
:101B0800003C014080B483B000AF78600B467B8016
:101B180013467B707B78002B03D07A887B689A61A8
:101B280003E07B881A047B689A6100BF0C37BD46C6
:101B38005DF8047B704780B485B000AF78600B46D1
:101B48007B807B685B69FB607A88FB6813401A04BA
:101B5800FB68D9437B880B401A437B689A6100BFB6
:101B68001437BD465DF8047B7047000080B586B029
:101B780000AF78607B68002B01D1012367E27B68A6
:101B88001B6803F00103002B75D0884B9B6803F09A
:101B98000C03042B0CD0854B9B6803F00C03082B1B
:101BA80012D1824B5B6803F48003B3F5800F0BD12D
:101BB8007E4B1B6803F40033002B5BD07B685B68AB
:101BC800002B57D1012342E27B685B68B3F5803F65
:101BD80006D1764B1B68754A43F4803313601DE0C9
:101BE8007B685B68B3F5A02F0CD1704B1B686F4AFC
:101BF80043F4802313606D4B1B686C4A43F48033B5
:101C080013600BE0694B1B68684A23F48033136048
:101C1800664B1B68654A23F4802313607B685B6806
:101C2800002B13D0FEF726FE386108E0FEF722FEEF
:101C380002463B69D31A642B01D9032307E25B4BA5
:101C48001B6803F40033002BF0D014E0FEF712FEFB
:101C5800386108E0FEF70EFE02463B69D31A642B92
:101C680001D90323F3E1514B1B6803F40033002B24
:101C7800F0D100E000BF7B681B6803F00203002B73
:101C880063D04A4B9B6803F00C03002B0BD0474BE7
:101C98009B6803F00C03082B1CD1444B5B6803F4CE
:101CA8008003002B16D1414B1B6803F00203002B65
:101CB80005D07B68DB68012B01D00123C7E13B4BD2
:101CC8001B6823F0F8027B681B69DB003749134364
:101CD8000B603AE07B68DB68002B20D0344B012294
:101CE8001A60FEF7C7FD386108E0FEF7C3FD02463B
:101CF8003B69D31A022B01D90323A8E12B4B1B689C
:101D080003F00203002BF0D0284B1B6823F0F802E5
:101D18007B681B69DB00254913430B6015E0244BE6
:101D280000221A60FEF7A6FD386108E0FEF7A2FD62
:101D380002463B69D31A022B01D9032387E11B4BC7
:101D48001B6803F00203002BF0D17B681B6803F0CB
:101D58000803002B36D07B685B69002B16D0154B27
:101D680001221A60FEF786FD386108E0FEF782FD61
:101D780002463B69D31A022B01D9032367E10B4BB7
:101D88005B6F03F00203002BF0D01BE0094B00222D
:101D98001A60FEF76FFD38610EE0FEF76BFD024634
:101DA8003B69D31A022B07D9032350E100380240BC
:101DB80000004742800E4742884B5B6F03F00203E6
:101DC800002BEAD17B681B6803F00403002B00F0AA
:101DD80097800023FB75814B1B6C03F08053002B0D
:101DE8000FD10023BB607D4B1B6C7C4A43F08053B2
:101DF80013647A4B1B6C03F08053BB60BB680123F0
:101E0800FB75774B1B6803F48073002B18D1744B58
:101E18001B68734A43F480731360FEF72BFD386127
:101E280008E0FEF727FD02463B69D31A022B01D9C9
:101E380003230CE16A4B1B6803F48073002BF0D07A
:101E48007B689B68012B06D1644B1B6F634A43F088
:101E5800010313671CE07B689B68052B0CD15F4B63
:101E68001B6F5E4A43F0040313675C4B1B6F5B4AAE
:101E780043F0010313670BE0584B1B6F574A23F0DD
:101E880001031367554B1B6F544A23F00403136770
:101E98007B689B68002B15D0FEF7ECFC38610AE0E4
:101EA800FEF7E8FC02463B69D31A41F288329342B6
:101EB80001D90323CBE0494B1B6F03F00203002B2E
:101EC800EED014E0FEF7D6FC38610AE0FEF7D2FC4B
:101ED80002463B69D31A41F28832934201D903235F
:101EE800B5E03E4B1B6F03F00203002BEED1FB7DE8
:101EF800012B05D1394B1B6C384A23F080531364EE
:101F08007B689B69002B00F0A180344B9B6803F031
:101F18000C03082B5CD07B689B69022B41D1314BA9
:101F280000221A60FEF7A6FC386108E0FEF7A2FC62
:101F380002463B69D31A022B01D9032387E0274BBA
:101F48001B6803F00073002BF0D17B68DA697B68AB
:101F58001B6A1A437B685B6A9B011A437B689B6A0E
:101F68005B08013B1B041A437B68DB6A1B061B49A1
:101F780013434B601B4B01221A60FEF77BFC386150
:101F880008E0FEF777FC02463B69D31A022B01D919
:101F980003235CE0114B1B6803F00073002BF0D0A7
:101FA80054E0104B00221A60FEF764FC386108E028
:101FB800FEF760FC02463B69D31A022B01D90323C2
:101FC80045E0064B1B6803F00073002BF0D13DE0A1
:101FD8007B689B69012B07D1012338E00038024058
:101FE80000700040600047421B4B5B68FB607B68E9
:101FF8009B69012B28D0FB6803F480027B68DB69AE
:102008009A4221D1FB6803F03F027B681B6A9A421F
:102018001AD1FA6847F6C07313407A68526A920177
:10202800934211D1FB6803F440327B689B6A5B08DA
:10203800013B1B049A4207D1FB6803F070627B687E
:10204800DB6A1B069A4201D0012300E000231846F0
:102058001837BD4680BD00BF0038024080B584B047
:1020680000AF786039607B68002B01D10123CCE098
:10207800684B1B6803F007033A689A420CD9654B12
:102088003A68D2B21A70634B1B6803F007033A68C8
:102098009A4201D00123B8E07B681B6803F0020371
:1020A800002B20D07B681B6803F00403002B05D0AD
:1020B800594B9B68584A43F4E05393607B681B680C
:1020C80003F00803002B05D0534B9B68524A43F496
:1020D80060439360504B9B6823F0F0027B689B68D9
:1020E8004D4913438B607B681B6803F00103002B89
:1020F80044D07B685B68012B07D1474B1B6803F40E
:102108000033002B19D101237FE07B685B68022B29
:1021180003D07B685B68032B07D13F4B1B6803F038
:102128000073002B09D101236FE03B4B1B6803F0C0
:102138000203002B01D1012367E0374B9B6823F092
:1021480003027B685B68344913438B60FEF792FB9C
:10215800F8600AE0FEF78EFB0246FB68D31A41F2EC
:102168008832934201D903234FE02B4B9B6803F03D
:102178000C027B685B689B009A42EBD1254B1B687D
:1021880003F007033A689A420CD2224B3A68D2B25B
:102198001A70204B1B6803F007033A689A4201D073
:1021A800012332E07B681B6803F00403002B08D08E
:1021B800194B9B6823F4E0527B68DB68164913438C
:1021C8008B607B681B6803F00803002B09D0124B57
:1021D8009B6823F460427B681B69DB000E4913434C
:1021E8008B6000F021F802460B4B9B681B0903F03B
:1021F8000F030A49CB5C22FA03F3094A1360094B1F
:102208001B681846FEF7F2FA002318461037BD4639
:1022180080BD00BF003C0240003802403C27000857
:1022280000000020040000202DE9B04F90B000AF5E
:1022380000237B630023FB6300233B630023BB6312
:10224800594B9B6803F00C03082B0DD0082B00F2A8
:10225800A180002B02D0042B03D09BE0534BBB631F
:102268009BE0534BBB6398E04F4B5B6803F03F0325
:102278007B634D4B5B6803F48003002B28D04A4BEB
:102288005B689B0900223B627A623B6AC3F30800E1
:102298000021474B03FB01F2002300FB03F3134427
:1022A800434AA0FB0212FA620A46BA62FA6A134467
:1022B800FB627B6B0022BB61FA61D7E90623D7E991
:1022C8000A01FDF75DFF02460B461346FB6353E028
:1022D800354B5B689B0900223B617A613B69C3F31C
:1022E800080A4FF0000B52465B464FF000004FF0D3
:1022F8000001590141EAD261500102460B46B2EB96
:102308000A0863EB0B094FF000024FF000034FEA95
:10231800891343EA98634FEA8812B2EB080463EB27
:1023280009054FF000024FF00003EB0043EA547335
:10233800E20014461D4614EB0A033B6045EB0B0311
:102348007B604FF000024FF00003D7E900452946B3
:102358008B02214643EA915321468A0210461946C8
:102368007B6B0022BB60FA60D7E90223FDF708FF08
:1023780002460B461346FB630B4B5B681B0C03F0D2
:10238800030301335B003B63FA6B3B6BB2FBF3F374
:10239800BB6302E0054BBB6300BFBB6B184640370D
:1023A800BD46BDE8B08F00BF003802400024F400ED
:1023B800001BB700DFF834D0FEF7E4F90C480D49EC
:1023C8000D4A002302E0D458C4500433C4188C4288
:1023D800F9D30A4A0A4C002301E013600432A242EE
:1023E800FBD300F077F9FDF72BFF704700000220C0
:1023F800000000200C0000205C2700080C000020D2
:1024080058000020FEE700002DE9F047089D0E4621
:1024180004460F46002B4AD194468C45B2FA82F204
:1024280060D942B1C2F12003974020FA03F30CFAB5
:1024380002FC1F4394404FEA1C4E1FFA8CF6B7FB70
:10244800FEF1230C0EFB117743EA074301FB06F06C
:1024580098420AD91CEB030301F1FF3780F015817C
:10246800984240F21281023963441B1AA4B2B3FBAA
:10247800FEF00EFB103344EA034400FB06F6A642C6
:102488000AD91CEB040400F1FF3380F00081A64256
:1024980040F2FD806444023840EA0140A41B002158
:1024A8001DB1D4400023C5E90043BDE8F0878B4245
:1024B80005D90DB1C5E9000100210846F5E7B3FAD1
:1024C80083F1002946D1B34202D3824200F2F5805B
:1024D800841A66EB030201201746002DE5D0C5E9F2
:1024E8000047E2E7002A40F09380A1EB0C034FEA93
:1024F8001C471FFA8CFE0121B3FBF7F607FB1630C9
:10250800230C43EA00430EFB06F0984208D91CEB63
:10251800030306F1FF3802D2984200F2D080464603
:102528001B1AA4B2B3FBF7F007FB103344EA0344C9
:102538000EFB00FEA64508D91CEB040400F1FF338E
:1025480002D2A64500F2B6801846A4EB0E0440EA73
:102558000640A5E7C1F120078B4022FA07FC4CEAA8
:10256800030C06FA01FE20FA07F426FA07F344EAF8
:102578000E0400FA01F84FEA1C404FEA1449B3FB75
:10258800F0FE1FFA8CF600FB1E3349EA03430EFBEC
:1025980006F9994502FA01F20BD91CEB03030EF177
:1025A800FF3A80F08580994540F28280AEF1020EB4
:1025B8006344A3EB0909A4B2B9FBF0F300FB139938
:1025C80044EA094403FB06F6A64208D91CEB0404B6
:1025D80003F1FF3068D2A64266D9023B644443EA5D
:1025E8000E40A41BA0FB02E6B4427346B14652D388
:1025F8004FD05DB1B8EB030264EB090404FA07F7A6
:1026080022FA01F31F43CC40C5E9007400214CE7CE
:10261800C2F1200120FA01F30CFA02FC26FA01F1BA
:10262800964033434FEA1C471FFA8CFEB1FBF7F084
:1026380007FB1016190C41EA064100FB0EF68E4204
:1026480004FA02F408D91CEB010100F1FF382DD27D
:102658008E422BD902386144891B9BB2B1FBF7F635
:1026680007FB161143EA014306FB0EF1994208D90C
:102678001CEB030306F1FF3814D2994212D9023E2B
:1026880063445B1A46EA004136E73946EDE61846E8
:1026980002E7F045ADD2BEEB020366EB0C0601384B
:1026A800B146A6E74646ECE7034698E74046D3E737
:1026B800D6467EE76444023847E708460DE7023EFF
:1026C80063442DE702440346934200D1704703F860
:1026D800011BF9E770B50D4D0D4C641BA4100026C5
:1026E800A64209D10B4D0C4C00F018F8641BA4103D
:1026F8000026A64205D170BD55F8043B984701361F
:10270800EEE755F8043B98470136F2E754270008EE
:10271800542700085427000858270008F8B500BFB8
:10272800F8BC08BC9E467047F8B500BFF8BC08BCAA
:042738009E46704702
:10273C000000000000000000010203040607080965
:08274C00C4FCFF7F0100000046
:042754002502000852
:04275800FD01000877
:0C275C000024F400100000000100000048
:04000005080023BD0F
:00000001FF
